{
  "_format": "hh-sol-artifact-1",
  "contractName": "HogwartsNFT",
  "sourceName": "contracts/HogwartsNFT.sol",
  "abi": [
    {
      "inputs": [],
      "stateMutability": "nonpayable",
      "type": "constructor"
    },
    {
      "anonymous": false,
      "inputs": [
        {
          "indexed": true,
          "internalType": "address",
          "name": "owner",
          "type": "address"
        },
        {
          "indexed": true,
          "internalType": "address",
          "name": "approved",
          "type": "address"
        },
        {
          "indexed": true,
          "internalType": "uint256",
          "name": "tokenId",
          "type": "uint256"
        }
      ],
      "name": "Approval",
      "type": "event"
    },
    {
      "anonymous": false,
      "inputs": [
        {
          "indexed": true,
          "internalType": "address",
          "name": "owner",
          "type": "address"
        },
        {
          "indexed": true,
          "internalType": "address",
          "name": "operator",
          "type": "address"
        },
        {
          "indexed": false,
          "internalType": "bool",
          "name": "approved",
          "type": "bool"
        }
      ],
      "name": "ApprovalForAll",
      "type": "event"
    },
    {
      "anonymous": false,
      "inputs": [
        {
          "indexed": false,
          "internalType": "uint256",
          "name": "_fromTokenId",
          "type": "uint256"
        },
        {
          "indexed": false,
          "internalType": "uint256",
          "name": "_toTokenId",
          "type": "uint256"
        }
      ],
      "name": "BatchMetadataUpdate",
      "type": "event"
    },
    {
      "anonymous": false,
      "inputs": [
        {
          "indexed": false,
          "internalType": "uint256",
          "name": "_tokenId",
          "type": "uint256"
        }
      ],
      "name": "MetadataUpdate",
      "type": "event"
    },
    {
      "anonymous": false,
      "inputs": [
        {
          "indexed": false,
          "internalType": "uint256",
          "name": "house",
          "type": "uint256"
        },
        {
          "indexed": false,
          "internalType": "address",
          "name": "minter",
          "type": "address"
        },
        {
          "indexed": false,
          "internalType": "string",
          "name": "name",
          "type": "string"
        }
      ],
      "name": "NftMinted",
      "type": "event"
    },
    {
      "anonymous": false,
      "inputs": [
        {
          "indexed": true,
          "internalType": "address",
          "name": "previousOwner",
          "type": "address"
        },
        {
          "indexed": true,
          "internalType": "address",
          "name": "newOwner",
          "type": "address"
        }
      ],
      "name": "OwnershipTransferred",
      "type": "event"
    },
    {
      "anonymous": false,
      "inputs": [
        {
          "indexed": true,
          "internalType": "address",
          "name": "from",
          "type": "address"
        },
        {
          "indexed": true,
          "internalType": "address",
          "name": "to",
          "type": "address"
        },
        {
          "indexed": true,
          "internalType": "uint256",
          "name": "tokenId",
          "type": "uint256"
        }
      ],
      "name": "Transfer",
      "type": "event"
    },
    {
      "inputs": [
        {
          "internalType": "address",
          "name": "to",
          "type": "address"
        },
        {
          "internalType": "uint256",
          "name": "tokenId",
          "type": "uint256"
        }
      ],
      "name": "approve",
      "outputs": [],
      "stateMutability": "nonpayable",
      "type": "function"
    },
    {
      "inputs": [
        {
          "internalType": "address",
          "name": "owner",
          "type": "address"
        }
      ],
      "name": "balanceOf",
      "outputs": [
        {
          "internalType": "uint256",
          "name": "",
          "type": "uint256"
        }
      ],
      "stateMutability": "view",
      "type": "function"
    },
    {
      "inputs": [
        {
          "internalType": "uint256",
          "name": "tokenId",
          "type": "uint256"
        }
      ],
      "name": "getApproved",
      "outputs": [
        {
          "internalType": "address",
          "name": "",
          "type": "address"
        }
      ],
      "stateMutability": "view",
      "type": "function"
    },
    {
      "inputs": [
        {
          "internalType": "address",
          "name": "_user",
          "type": "address"
        }
      ],
      "name": "getHouseIndex",
      "outputs": [
        {
          "internalType": "uint256",
          "name": "",
          "type": "uint256"
        }
      ],
      "stateMutability": "view",
      "type": "function"
    },
    {
      "inputs": [
        {
          "internalType": "address",
          "name": "",
          "type": "address"
        }
      ],
      "name": "hasMinted",
      "outputs": [
        {
          "internalType": "bool",
          "name": "",
          "type": "bool"
        }
      ],
      "stateMutability": "view",
      "type": "function"
    },
    {
      "inputs": [
        {
          "internalType": "address",
          "name": "_user",
          "type": "address"
        }
      ],
      "name": "hasMintedNFT",
      "outputs": [
        {
          "internalType": "bool",
          "name": "",
          "type": "bool"
        }
      ],
      "stateMutability": "view",
      "type": "function"
    },
    {
      "inputs": [
        {
          "internalType": "address",
          "name": "owner",
          "type": "address"
        },
        {
          "internalType": "address",
          "name": "operator",
          "type": "address"
        }
      ],
      "name": "isApprovedForAll",
      "outputs": [
        {
          "internalType": "bool",
          "name": "",
          "type": "bool"
        }
      ],
      "stateMutability": "view",
      "type": "function"
    },
    {
      "inputs": [
        {
          "internalType": "address",
          "name": "recipient",
          "type": "address"
        },
        {
          "internalType": "uint256",
          "name": "house",
          "type": "uint256"
        },
        {
          "internalType": "string",
          "name": "name",
          "type": "string"
        }
      ],
      "name": "mintNFT",
      "outputs": [],
      "stateMutability": "nonpayable",
      "type": "function"
    },
    {
      "inputs": [],
      "name": "name",
      "outputs": [
        {
          "internalType": "string",
          "name": "",
          "type": "string"
        }
      ],
      "stateMutability": "view",
      "type": "function"
    },
    {
      "inputs": [],
      "name": "owner",
      "outputs": [
        {
          "internalType": "address",
          "name": "",
          "type": "address"
        }
      ],
      "stateMutability": "view",
      "type": "function"
    },
    {
      "inputs": [
        {
          "internalType": "uint256",
          "name": "tokenId",
          "type": "uint256"
        }
      ],
      "name": "ownerOf",
      "outputs": [
        {
          "internalType": "address",
          "name": "",
          "type": "address"
        }
      ],
      "stateMutability": "view",
      "type": "function"
    },
    {
      "inputs": [],
      "name": "renounceOwnership",
      "outputs": [],
      "stateMutability": "nonpayable",
      "type": "function"
    },
    {
      "inputs": [
        {
          "internalType": "address",
          "name": "",
          "type": "address"
        }
      ],
      "name": "s_addressToHouse",
      "outputs": [
        {
          "internalType": "uint256",
          "name": "",
          "type": "uint256"
        }
      ],
      "stateMutability": "view",
      "type": "function"
    },
    {
      "inputs": [
        {
          "internalType": "address",
          "name": "",
          "type": "address"
        }
      ],
      "name": "s_addressToName",
      "outputs": [
        {
          "internalType": "string",
          "name": "",
          "type": "string"
        }
      ],
      "stateMutability": "view",
      "type": "function"
    },
    {
      "inputs": [
        {
          "internalType": "uint256",
          "name": "",
          "type": "uint256"
        }
      ],
      "name": "s_requestIdToSender",
      "outputs": [
        {
          "internalType": "address",
          "name": "",
          "type": "address"
        }
      ],
      "stateMutability": "view",
      "type": "function"
    },
    {
      "inputs": [
        {
          "internalType": "address",
          "name": "from",
          "type": "address"
        },
        {
          "internalType": "address",
          "name": "to",
          "type": "address"
        },
        {
          "internalType": "uint256",
          "name": "tokenId",
          "type": "uint256"
        }
      ],
      "name": "safeTransferFrom",
      "outputs": [],
      "stateMutability": "nonpayable",
      "type": "function"
    },
    {
      "inputs": [
        {
          "internalType": "address",
          "name": "from",
          "type": "address"
        },
        {
          "internalType": "address",
          "name": "to",
          "type": "address"
        },
        {
          "internalType": "uint256",
          "name": "tokenId",
          "type": "uint256"
        },
        {
          "internalType": "bytes",
          "name": "data",
          "type": "bytes"
        }
      ],
      "name": "safeTransferFrom",
      "outputs": [],
      "stateMutability": "nonpayable",
      "type": "function"
    },
    {
      "inputs": [
        {
          "internalType": "address",
          "name": "operator",
          "type": "address"
        },
        {
          "internalType": "bool",
          "name": "approved",
          "type": "bool"
        }
      ],
      "name": "setApprovalForAll",
      "outputs": [],
      "stateMutability": "nonpayable",
      "type": "function"
    },
    {
      "inputs": [
        {
          "internalType": "bytes4",
          "name": "interfaceId",
          "type": "bytes4"
        }
      ],
      "name": "supportsInterface",
      "outputs": [
        {
          "internalType": "bool",
          "name": "",
          "type": "bool"
        }
      ],
      "stateMutability": "view",
      "type": "function"
    },
    {
      "inputs": [],
      "name": "symbol",
      "outputs": [
        {
          "internalType": "string",
          "name": "",
          "type": "string"
        }
      ],
      "stateMutability": "view",
      "type": "function"
    },
    {
      "inputs": [
        {
          "internalType": "uint256",
          "name": "tokenId",
          "type": "uint256"
        }
      ],
      "name": "tokenURI",
      "outputs": [
        {
          "internalType": "string",
          "name": "",
          "type": "string"
        }
      ],
      "stateMutability": "view",
      "type": "function"
    },
    {
      "inputs": [
        {
          "internalType": "address",
          "name": "from",
          "type": "address"
        },
        {
          "internalType": "address",
          "name": "to",
          "type": "address"
        },
        {
          "internalType": "uint256",
          "name": "tokenId",
          "type": "uint256"
        }
      ],
      "name": "transferFrom",
      "outputs": [],
      "stateMutability": "nonpayable",
      "type": "function"
    },
    {
      "inputs": [
        {
          "internalType": "address",
          "name": "newOwner",
          "type": "address"
        }
      ],
      "name": "transferOwnership",
      "outputs": [],
      "stateMutability": "nonpayable",
      "type": "function"
    }
  ],
  "bytecode": "0x61018060405260456101008181526080918291906200201861012039815260200160405180608001604052806045815260200162001fd360459139815260200160405180608001604052806044815260200162001f8f6044913981526020016040518060800160405280604481526020016200205d6044913990526200008a90600d9060046200017b565b503480156200009857600080fd5b50604080518082018252600c81526b121bd9ddd85c9d1cc813919560a21b602080830191825283518085019094526002845261048560f41b908401528151919291620000e791600091620001df565b508051620000fd906001906020840190620001df565b5050506200011a620001146200012560201b60201c565b62000129565b6000600c5562000321565b3390565b600780546001600160a01b038381166001600160a01b0319831681179093556040519116919082907f8be0079c531659141344cd1fd0a4f28419497f9722a3daafe3b4186f6b6457e090600090a35050565b828054828255906000526020600020908101928215620001cd579160200282015b82811115620001cd5782518051620001bc918491602090910190620001df565b50916020019190600101906200019c565b50620001db9291506200026a565b5090565b828054620001ed90620002e4565b90600052602060002090601f0160209004810192826200021157600085556200025c565b82601f106200022c57805160ff19168380011785556200025c565b828001600101855582156200025c579182015b828111156200025c5782518255916020019190600101906200023f565b50620001db9291506200028b565b80821115620001db576000620002818282620002a2565b506001016200026a565b5b80821115620001db57600081556001016200028c565b508054620002b090620002e4565b6000825580601f10620002c1575050565b601f016020900490600052602060002090810190620002e191906200028b565b50565b600181811c90821680620002f957607f821691505b602082108114156200031b57634e487b7160e01b600052602260045260246000fd5b50919050565b611c5e80620003316000396000f3fe608060405234801561001057600080fd5b506004361061014d5760003560e01c806370a08231116100c3578063b88d4fde1161007c578063b88d4fde146102f8578063c87b56dd1461030b578063cd6542321461031e578063e28cb25a1461033e578063e985e9c51461036a578063f2fde38b146103a657600080fd5b806370a0823114610288578063715018a61461029b5780638da5cb5b146102a357806395d89b41146102b4578063a22cb465146102bc578063a36f573b146102cf57600080fd5b806323b872dd1161011557806323b872dd146101e257806333975f94146101f557806338e21cce1461020857806342842e0e1461022b5780634a4b36c21461023e5780636352211e1461027557600080fd5b806301ffc9a71461015257806306fdde031461017a578063081812fc1461018f578063095ea7b3146101ba5780631e576912146101cf575b600080fd5b6101656101603660046116f1565b6103b9565b60405190151581526020015b60405180910390f35b6101826103e4565b6040516101719190611766565b6101a261019d366004611779565b610476565b6040516001600160a01b039091168152602001610171565b6101cd6101c83660046117ae565b61049d565b005b6101cd6101dd366004611864565b6105b8565b6101cd6101f03660046118cf565b6107a5565b61018261020336600461190b565b6107d6565b61016561021636600461190b565b600a6020526000908152604090205460ff1681565b6101cd6102393660046118cf565b610870565b61026761024c36600461190b565b6001600160a01b031660009081526009602052604090205490565b604051908152602001610171565b6101a2610283366004611779565b61088b565b61026761029636600461190b565b6108eb565b6101cd610971565b6007546001600160a01b03166101a2565b610182610985565b6101cd6102ca366004611926565b610994565b6101a26102dd366004611779565b6008602052600090815260409020546001600160a01b031681565b6101cd610306366004611962565b6109a3565b610182610319366004611779565b6109db565b61026761032c36600461190b565b60096020526000908152604090205481565b61016561034c36600461190b565b6001600160a01b03166000908152600a602052604090205460ff1690565b6101656103783660046119de565b6001600160a01b03918216600090815260056020908152604080832093909416825291909152205460ff1690565b6101cd6103b436600461190b565b610aec565b60006001600160e01b03198216632483248360e11b14806103de57506103de82610b65565b92915050565b6060600080546103f390611a11565b80601f016020809104026020016040519081016040528092919081815260200182805461041f90611a11565b801561046c5780601f106104415761010080835404028352916020019161046c565b820191906000526020600020905b81548152906001019060200180831161044f57829003601f168201915b5050505050905090565b600061048182610bb5565b506000908152600460205260409020546001600160a01b031690565b60006104a88261088b565b9050806001600160a01b0316836001600160a01b0316141561051b5760405162461bcd60e51b815260206004820152602160248201527f4552433732313a20617070726f76616c20746f2063757272656e74206f776e656044820152603960f91b60648201526084015b60405180910390fd5b336001600160a01b038216148061053757506105378133610378565b6105a95760405162461bcd60e51b815260206004820152603d60248201527f4552433732313a20617070726f76652063616c6c6572206973206e6f7420746f60448201527f6b656e206f776e6572206f7220617070726f76656420666f7220616c6c0000006064820152608401610512565b6105b38383610c14565b505050565b6105c0610c82565b6001600160a01b0383166000908152600a602052604090205460ff16156106385760405162461bcd60e51b815260206004820152602660248201527f596f75206861766520616c7265616479206d696e74656420796f757220686f756044820152651cd94813919560d21b6064820152608401610512565b600c546106458482610cdc565b6106f481600d858154811061065c5761065c611a4c565b90600052602060002001805461067190611a11565b80601f016020809104026020016040519081016040528092919081815260200182805461069d90611a11565b80156106ea5780601f106106bf576101008083540402835291602001916106ea565b820191906000526020600020905b8154815290600101906020018083116106cd57829003601f168201915b5050505050610cf6565b6001600160a01b0384166000908152600960209081526040808320869055600b8252909120835161072792850190611642565b506001600c600082825461073b9190611a62565b90915550506001600160a01b0384166000908152600a602052604090819020805460ff19166001179055517ffe281bcdb072dfbddfafb1763ee8ba9b91ba790715c617af593493fe865ac7379061079790859087908690611a88565b60405180910390a150505050565b6107af3382610dc8565b6107cb5760405162461bcd60e51b815260040161051290611abb565b6105b3838383610e46565b600b60205260009081526040902080546107ef90611a11565b80601f016020809104026020016040519081016040528092919081815260200182805461081b90611a11565b80156108685780601f1061083d57610100808354040283529160200191610868565b820191906000526020600020905b81548152906001019060200180831161084b57829003601f168201915b505050505081565b6105b3838383604051806020016040528060008152506109a3565b6000818152600260205260408120546001600160a01b0316806103de5760405162461bcd60e51b8152602060048201526018602482015277115490cdcc8c4e881a5b9d985b1a59081d1bdad95b88125160421b6044820152606401610512565b60006001600160a01b0382166109555760405162461bcd60e51b815260206004820152602960248201527f4552433732313a2061646472657373207a65726f206973206e6f7420612076616044820152683634b21037bbb732b960b91b6064820152608401610512565b506001600160a01b031660009081526003602052604090205490565b610979610c82565b6109836000610fb7565b565b6060600180546103f390611a11565b61099f338383611009565b5050565b6109ad3383610dc8565b6109c95760405162461bcd60e51b815260040161051290611abb565b6109d5848484846110d8565b50505050565b60606109e682610bb5565b600082815260066020526040812080546109ff90611a11565b80601f0160208091040260200160405190810160405280929190818152602001828054610a2b90611a11565b8015610a785780601f10610a4d57610100808354040283529160200191610a78565b820191906000526020600020905b815481529060010190602001808311610a5b57829003601f168201915b505050505090506000610a9660408051602081019091526000815290565b9050805160001415610aa9575092915050565b815115610adb578082604051602001610ac3929190611b08565b60405160208183030381529060405292505050919050565b610ae48461110b565b949350505050565b610af4610c82565b6001600160a01b038116610b595760405162461bcd60e51b815260206004820152602660248201527f4f776e61626c653a206e6577206f776e657220697320746865207a65726f206160448201526564647265737360d01b6064820152608401610512565b610b6281610fb7565b50565b60006001600160e01b031982166380ac58cd60e01b1480610b9657506001600160e01b03198216635b5e139f60e01b145b806103de57506301ffc9a760e01b6001600160e01b03198316146103de565b6000818152600260205260409020546001600160a01b0316610b625760405162461bcd60e51b8152602060048201526018602482015277115490cdcc8c4e881a5b9d985b1a59081d1bdad95b88125160421b6044820152606401610512565b600081815260046020526040902080546001600160a01b0319166001600160a01b0384169081179091558190610c498261088b565b6001600160a01b03167f8c5be1e5ebec7d5bd14f71427d1e84f3dd0314c0f7b2291e5b200ac8c7c3b92560405160405180910390a45050565b6007546001600160a01b031633146109835760405162461bcd60e51b815260206004820181905260248201527f4f776e61626c653a2063616c6c6572206973206e6f7420746865206f776e65726044820152606401610512565b61099f82826040518060200160405280600081525061117f565b6000828152600260205260409020546001600160a01b0316610d715760405162461bcd60e51b815260206004820152602e60248201527f45524337323155524953746f726167653a2055524920736574206f66206e6f6e60448201526d32bc34b9ba32b73a103a37b5b2b760911b6064820152608401610512565b60008281526006602090815260409091208251610d9092840190611642565b506040518281527ff8e1a15aba9398e019f0b49df1a4fde98ee17ae345cb5f6b5e2c27f5033e8ce79060200160405180910390a15050565b600080610dd48361088b565b9050806001600160a01b0316846001600160a01b03161480610e1b57506001600160a01b0380821660009081526005602090815260408083209388168352929052205460ff165b80610ae45750836001600160a01b0316610e3484610476565b6001600160a01b031614949350505050565b826001600160a01b0316610e598261088b565b6001600160a01b031614610e7f5760405162461bcd60e51b815260040161051290611b37565b6001600160a01b038216610ee15760405162461bcd60e51b8152602060048201526024808201527f4552433732313a207472616e7366657220746f20746865207a65726f206164646044820152637265737360e01b6064820152608401610512565b610eee83838360016111b2565b826001600160a01b0316610f018261088b565b6001600160a01b031614610f275760405162461bcd60e51b815260040161051290611b37565b600081815260046020908152604080832080546001600160a01b03199081169091556001600160a01b0387811680865260038552838620805460001901905590871680865283862080546001019055868652600290945282852080549092168417909155905184937fddf252ad1be2c89b69c2b068fc378daa952ba7f163c4a11628f55a4df523b3ef91a4505050565b600780546001600160a01b038381166001600160a01b0319831681179093556040519116919082907f8be0079c531659141344cd1fd0a4f28419497f9722a3daafe3b4186f6b6457e090600090a35050565b816001600160a01b0316836001600160a01b0316141561106b5760405162461bcd60e51b815260206004820152601960248201527f4552433732313a20617070726f766520746f2063616c6c6572000000000000006044820152606401610512565b6001600160a01b03838116600081815260056020908152604080832094871680845294825291829020805460ff191686151590811790915591519182527f17307eab39ab6107e8899845ad3d59bd9653f200f220920489ca2b5937696c31910160405180910390a3505050565b6110e3848484610e46565b6110ef84848484611227565b6109d55760405162461bcd60e51b815260040161051290611b7c565b606061111682610bb5565b600061112d60408051602081019091526000815290565b9050600081511161114d5760405180602001604052806000815250611178565b8061115784611334565b604051602001611168929190611b08565b6040516020818303038152906040525b9392505050565b61118983836113d1565b6111966000848484611227565b6105b35760405162461bcd60e51b815260040161051290611b7c565b6001600160a01b03841615806111cf57506001600160a01b038316155b6109d55760405162461bcd60e51b8152602060048201526024808201527f457272212054686973206973206e6f7420616c6c6f77656420696e20486f67776044820152636172747360e01b6064820152608401610512565b60006001600160a01b0384163b1561132957604051630a85bd0160e11b81526001600160a01b0385169063150b7a029061126b903390899088908890600401611bce565b602060405180830381600087803b15801561128557600080fd5b505af19250505080156112b5575060408051601f3d908101601f191682019092526112b291810190611c0b565b60015b61130f573d8080156112e3576040519150601f19603f3d011682016040523d82523d6000602084013e6112e8565b606091505b5080516113075760405162461bcd60e51b815260040161051290611b7c565b805181602001fd5b6001600160e01b031916630a85bd0160e11b149050610ae4565b506001949350505050565b606060006113418361156a565b600101905060008167ffffffffffffffff811115611361576113616117d8565b6040519080825280601f01601f19166020018201604052801561138b576020820181803683370190505b5090508181016020015b600019016f181899199a1a9b1b9c1cb0b131b232b360811b600a86061a8153600a85049450846113c4576113c9565b611395565b509392505050565b6001600160a01b0382166114275760405162461bcd60e51b815260206004820181905260248201527f4552433732313a206d696e7420746f20746865207a65726f20616464726573736044820152606401610512565b6000818152600260205260409020546001600160a01b03161561148c5760405162461bcd60e51b815260206004820152601c60248201527f4552433732313a20746f6b656e20616c7265616479206d696e746564000000006044820152606401610512565b61149a6000838360016111b2565b6000818152600260205260409020546001600160a01b0316156114ff5760405162461bcd60e51b815260206004820152601c60248201527f4552433732313a20746f6b656e20616c7265616479206d696e746564000000006044820152606401610512565b6001600160a01b038216600081815260036020908152604080832080546001019055848352600290915280822080546001600160a01b0319168417905551839291907fddf252ad1be2c89b69c2b068fc378daa952ba7f163c4a11628f55a4df523b3ef908290a45050565b60008072184f03e93ff9f4daa797ed6e38ed64bf6a1f0160401b83106115a95772184f03e93ff9f4daa797ed6e38ed64bf6a1f0160401b830492506040015b6d04ee2d6d415b85acef810000000083106115d5576d04ee2d6d415b85acef8100000000830492506020015b662386f26fc1000083106115f357662386f26fc10000830492506010015b6305f5e100831061160b576305f5e100830492506008015b612710831061161f57612710830492506004015b60648310611631576064830492506002015b600a83106103de5760010192915050565b82805461164e90611a11565b90600052602060002090601f01602090048101928261167057600085556116b6565b82601f1061168957805160ff19168380011785556116b6565b828001600101855582156116b6579182015b828111156116b657825182559160200191906001019061169b565b506116c29291506116c6565b5090565b5b808211156116c257600081556001016116c7565b6001600160e01b031981168114610b6257600080fd5b60006020828403121561170357600080fd5b8135611178816116db565b60005b83811015611729578181015183820152602001611711565b838111156109d55750506000910152565b6000815180845261175281602086016020860161170e565b601f01601f19169290920160200192915050565b602081526000611178602083018461173a565b60006020828403121561178b57600080fd5b5035919050565b80356001600160a01b03811681146117a957600080fd5b919050565b600080604083850312156117c157600080fd5b6117ca83611792565b946020939093013593505050565b634e487b7160e01b600052604160045260246000fd5b600067ffffffffffffffff80841115611809576118096117d8565b604051601f8501601f19908116603f01168101908282118183101715611831576118316117d8565b8160405280935085815286868601111561184a57600080fd5b858560208301376000602087830101525050509392505050565b60008060006060848603121561187957600080fd5b61188284611792565b925060208401359150604084013567ffffffffffffffff8111156118a557600080fd5b8401601f810186136118b657600080fd5b6118c5868235602084016117ee565b9150509250925092565b6000806000606084860312156118e457600080fd5b6118ed84611792565b92506118fb60208501611792565b9150604084013590509250925092565b60006020828403121561191d57600080fd5b61117882611792565b6000806040838503121561193957600080fd5b61194283611792565b91506020830135801515811461195757600080fd5b809150509250929050565b6000806000806080858703121561197857600080fd5b61198185611792565b935061198f60208601611792565b925060408501359150606085013567ffffffffffffffff8111156119b257600080fd5b8501601f810187136119c357600080fd5b6119d2878235602084016117ee565b91505092959194509250565b600080604083850312156119f157600080fd5b6119fa83611792565b9150611a0860208401611792565b90509250929050565b600181811c90821680611a2557607f821691505b60208210811415611a4657634e487b7160e01b600052602260045260246000fd5b50919050565b634e487b7160e01b600052603260045260246000fd5b60008219821115611a8357634e487b7160e01b600052601160045260246000fd5b500190565b8381526001600160a01b0383166020820152606060408201819052600090611ab29083018461173a565b95945050505050565b6020808252602d908201527f4552433732313a2063616c6c6572206973206e6f7420746f6b656e206f776e6560408201526c1c881bdc88185c1c1c9bdd9959609a1b606082015260800190565b60008351611b1a81846020880161170e565b835190830190611b2e81836020880161170e565b01949350505050565b60208082526025908201527f4552433732313a207472616e736665722066726f6d20696e636f72726563742060408201526437bbb732b960d91b606082015260800190565b60208082526032908201527f4552433732313a207472616e7366657220746f206e6f6e20455243373231526560408201527131b2b4bb32b91034b6b83632b6b2b73a32b960711b606082015260800190565b6001600160a01b0385811682528416602082015260408101839052608060608201819052600090611c019083018461173a565b9695505050505050565b600060208284031215611c1d57600080fd5b8151611178816116db56fea26469706673582212201ea329e43d825613dbeba4fafa16fee50b565318b803b86252d4ec68176365f564736f6c63430008080033697066733a2f2f516d586a613251424b734e5739716e77396b4b66636d3235724a546f6d7741564a557258656b59464a6e567762672f526176656e636c61772e6a736f6e697066733a2f2f516d586a613251424b734e5739716e77396b4b66636d3235724a546f6d7741564a557258656b59464a6e567762672f487566666c65707566662e6a736f6e697066733a2f2f516d586a613251424b734e5739716e77396b4b66636d3235724a546f6d7741564a557258656b59464a6e567762672f4772796666696e646f722e6a736f6e697066733a2f2f516d586a613251424b734e5739716e77396b4b66636d3235724a546f6d7741564a557258656b59464a6e567762672f536c7974686572696e2e6a736f6e",
  "linkReferences": {},
  "deployedLinkReferences": {}
}