{
  "_format": "hh-sol-artifact-1",
  "contractName": "RandomHouseAssignment",
  "sourceName": "contracts/RandomHouseAssignment.sol",
  "abi": [
    {
      "inputs": [
        {
          "internalType": "address",
          "name": "_nftContract",
          "type": "address"
        },
        {
          "internalType": "address",
          "name": "vrfCoordinatorV2Address",
          "type": "address"
        },
        {
          "internalType": "uint64",
          "name": "subId",
          "type": "uint64"
        },
        {
          "internalType": "bytes32",
          "name": "keyHash",
          "type": "bytes32"
        },
        {
          "internalType": "uint32",
          "name": "callbackGasLimit",
          "type": "uint32"
        }
      ],
      "stateMutability": "nonpayable",
      "type": "constructor"
    },
    {
      "inputs": [
        {
          "internalType": "address",
          "name": "have",
          "type": "address"
        },
        {
          "internalType": "address",
          "name": "want",
          "type": "address"
        }
      ],
      "name": "OnlyCoordinatorCanFulfill",
      "type": "error"
    },
    {
      "anonymous": false,
      "inputs": [
        {
          "indexed": true,
          "internalType": "uint256",
          "name": "requestId",
          "type": "uint256"
        },
        {
          "indexed": false,
          "internalType": "address",
          "name": "requester",
          "type": "address"
        }
      ],
      "name": "NftRequested",
      "type": "event"
    },
    {
      "inputs": [],
      "name": "nftContract",
      "outputs": [
        {
          "internalType": "contract HogwartsNFT",
          "name": "",
          "type": "address"
        }
      ],
      "stateMutability": "view",
      "type": "function"
    },
    {
      "inputs": [
        {
          "internalType": "uint256",
          "name": "requestId",
          "type": "uint256"
        },
        {
          "internalType": "uint256[]",
          "name": "randomWords",
          "type": "uint256[]"
        }
      ],
      "name": "rawFulfillRandomWords",
      "outputs": [],
      "stateMutability": "nonpayable",
      "type": "function"
    },
    {
      "inputs": [
        {
          "internalType": "string",
          "name": "name",
          "type": "string"
        }
      ],
      "name": "requestNFT",
      "outputs": [],
      "stateMutability": "nonpayable",
      "type": "function"
    }
  ],
  "bytecode": "0x60a060405234801561001057600080fd5b5060405161086938038061086983398101604081905261002f916100ce565b6001600160601b0319606085901b16608052600080546001600160a01b039687166001600160a01b0319909116179055600180546001600160401b03909416600160a01b026001600160e01b03199094169590941694909417919091179091556002556003805463ffffffff90921663ffffffff19909216919091179055610149565b80516001600160a01b03811681146100c957600080fd5b919050565b600080600080600060a086880312156100e657600080fd5b6100ef866100b2565b94506100fd602087016100b2565b60408701519094506001600160401b038116811461011a57600080fd5b60608701516080880151919450925063ffffffff8116811461013b57600080fd5b809150509295509295909350565b60805160601c6106fd61016c6000396000818160a8015260ea01526106fd6000f3fe608060405234801561001057600080fd5b50600436106100415760003560e01c80631fe543e314610046578063adc50c341461005b578063d56d229d1461006e575b600080fd5b610059610054366004610488565b61009d565b005b61005961006936600461053a565b610129565b600054610081906001600160a01b031681565b6040516001600160a01b03909116815260200160405180910390f35b336001600160a01b037f0000000000000000000000000000000000000000000000000000000000000000161461011b5760405163073e64fd60e21b81523360048201526001600160a01b037f000000000000000000000000000000000000000000000000000000000000000016602482015260440160405180910390fd5b610125828261025e565b5050565b60018054600254600380546040516305d3b1d360e41b81526004810193909352600160a01b840467ffffffffffffffff166024840152604483019190915263ffffffff16606482015260848101929092526000916001600160a01b0390911690635d3b1d309060a401602060405180830381600087803b1580156101ac57600080fd5b505af11580156101c0573d6000803e3d6000fd5b505050506040513d601f19601f820116820180604052508101906101e491906105cf565b600081815260046020908152604080832080546001600160a01b0319163390811790915583526005825290912084519293506102249290918501906103a8565b5060405133815281907ff873236e6cc0ecc5be1a9a35c95ee5b8d1ac4cc7bfef0cc5060391d6cc98e26b9060200160405180910390a25050565b6000828152600460209081526040808320546001600160a01b0316808452600590925282208054919291610291906105e8565b80601f01602080910402602001604051908101604052809291908181526020018280546102bd906105e8565b801561030a5780601f106102df5761010080835404028352916020019161030a565b820191906000526020600020905b8154815290600101906020018083116102ed57829003601f168201915b50505050509050600060048460008151811061032857610328610623565b602002602001015161033a9190610639565b600054604051630f2bb48960e11b81529192506001600160a01b031690631e5769129061036f9086908590879060040161065b565b600060405180830381600087803b15801561038957600080fd5b505af115801561039d573d6000803e3d6000fd5b505050505050505050565b8280546103b4906105e8565b90600052602060002090601f0160209004810192826103d6576000855561041c565b82601f106103ef57805160ff191683800117855561041c565b8280016001018555821561041c579182015b8281111561041c578251825591602001919060010190610401565b5061042892915061042c565b5090565b5b80821115610428576000815560010161042d565b634e487b7160e01b600052604160045260246000fd5b604051601f8201601f1916810167ffffffffffffffff8111828210171561048057610480610441565b604052919050565b6000806040838503121561049b57600080fd5b8235915060208084013567ffffffffffffffff808211156104bb57600080fd5b818601915086601f8301126104cf57600080fd5b8135818111156104e1576104e1610441565b8060051b91506104f2848301610457565b818152918301840191848101908984111561050c57600080fd5b938501935b8385101561052a57843582529385019390850190610511565b8096505050505050509250929050565b6000602080838503121561054d57600080fd5b823567ffffffffffffffff8082111561056557600080fd5b818501915085601f83011261057957600080fd5b81358181111561058b5761058b610441565b61059d601f8201601f19168501610457565b915080825286848285010111156105b357600080fd5b8084840185840137600090820190930192909252509392505050565b6000602082840312156105e157600080fd5b5051919050565b600181811c908216806105fc57607f821691505b6020821081141561061d57634e487b7160e01b600052602260045260246000fd5b50919050565b634e487b7160e01b600052603260045260246000fd5b60008261065657634e487b7160e01b600052601260045260246000fd5b500690565b60018060a01b038416815260006020848184015260606040840152835180606085015260005b8181101561069d57858101830151858201608001528201610681565b818111156106af576000608083870101525b50601f01601f1916929092016080019594505050505056fea2646970667358221220f1f018c5a7de84e376d65c1251366d55c8fd62fdbae51a219e36399da8dea20a64736f6c63430008080033",
  "linkReferences": {},
  "deployedLinkReferences": {}
}